{
  "_format": "hh-sol-artifact-1",
  "contractName": "WavePortal",
  "sourceName": "contracts/WavePortal.sol",
  "abi": [
    {
      "inputs": [],
      "stateMutability": "nonpayable",
      "type": "constructor"
    },
    {
      "inputs": [],
      "name": "getTotalYos",
      "outputs": [
        {
          "internalType": "uint256",
          "name": "",
          "type": "uint256"
        }
      ],
      "stateMutability": "view",
      "type": "function"
    },
    {
      "inputs": [],
      "name": "sayYo",
      "outputs": [],
      "stateMutability": "nonpayable",
      "type": "function"
    }
  ],
  "bytecode": "0x608060405234801561001057600080fd5b5061003c6040518060600160405280602e8152602001610719602e913961004160201b6100e91760201c565b6101c4565b6100dd816040516024016100559190610142565b6040516020818303038152906040527f41304fac000000000000000000000000000000000000000000000000000000007bffffffffffffffffffffffffffffffffffffffffffffffffffffffff19166020820180517bffffffffffffffffffffffffffffffffffffffffffffffffffffffff83818316178352505050506100e060201b60201c565b50565b60008151905060006a636f6e736f6c652e6c6f679050602083016000808483855afa5050505050565b600061011482610164565b61011e818561016f565b935061012e818560208601610180565b610137816101b3565b840191505092915050565b6000602082019050818103600083015261015c8184610109565b905092915050565b600081519050919050565b600082825260208201905092915050565b60005b8381101561019e578082015181840152602081019050610183565b838111156101ad576000848401525b50505050565b6000601f19601f8301169050919050565b610546806101d36000396000f3fe608060405234801561001057600080fd5b50600436106100365760003560e01c8063c68622e31461003b578063df85d62d14610059575b600080fd5b610043610063565b60405161005091906103bc565b60405180910390f35b610061610091565b005b60006100896040518060600160405280602581526020016104ec60259139600054610182565b600054905090565b6000808154809291906100a390610462565b91905055506100e76040518060400160405280601e81526020017f54686520686f6d69652c20257320686173206a757374207361696420596f00008152503361021e565b565b61017f816040516024016100fd919061033a565b6040516020818303038152906040527f41304fac000000000000000000000000000000000000000000000000000000007bffffffffffffffffffffffffffffffffffffffffffffffffffffffff19166020820180517bffffffffffffffffffffffffffffffffffffffffffffffffffffffff83818316178352505050506102ba565b50565b61021a828260405160240161019892919061038c565b6040516020818303038152906040527f9710a9d0000000000000000000000000000000000000000000000000000000007bffffffffffffffffffffffffffffffffffffffffffffffffffffffff19166020820180517bffffffffffffffffffffffffffffffffffffffffffffffffffffffff83818316178352505050506102ba565b5050565b6102b6828260405160240161023492919061035c565b6040516020818303038152906040527f319af333000000000000000000000000000000000000000000000000000000007bffffffffffffffffffffffffffffffffffffffffffffffffffffffff19166020820180517bffffffffffffffffffffffffffffffffffffffffffffffffffffffff83818316178352505050506102ba565b5050565b60008151905060006a636f6e736f6c652e6c6f679050602083016000808483855afa5050505050565b6102ec816103f3565b82525050565b60006102fd826103d7565b61030781856103e2565b935061031781856020860161042f565b610320816104da565b840191505092915050565b61033481610425565b82525050565b6000602082019050818103600083015261035481846102f2565b905092915050565b6000604082019050818103600083015261037681856102f2565b905061038560208301846102e3565b9392505050565b600060408201905081810360008301526103a681856102f2565b90506103b5602083018461032b565b9392505050565b60006020820190506103d1600083018461032b565b92915050565b600081519050919050565b600082825260208201905092915050565b60006103fe82610405565b9050919050565b600073ffffffffffffffffffffffffffffffffffffffff82169050919050565b6000819050919050565b60005b8381101561044d578082015181840152602081019050610432565b8381111561045c576000848401525b50505050565b600061046d82610425565b91507fffffffffffffffffffffffffffffffffffffffffffffffffffffffffffffffff8214156104a05761049f6104ab565b5b600182019050919050565b7f4e487b7100000000000000000000000000000000000000000000000000000000600052601160045260246000fd5b6000601f19601f830116905091905056fe43757272656e746c792077652068617665206120746f74616c206f6620256420596f277321a2646970667358221220a041329385d94631b13e047aafe4cdee066d21d1b8ba40a9500fbc93d6a39da364736f6c63430008040033596f2c2049276d2041636520616e64204920616d206120736d617274206675636b696e6720636f6e747261637421",
  "linkReferences": {},
  "deployedLinkReferences": {}
}